:03000000020006F5
:03005F0002000399
:0300030002007484
:20006200AE82AF838E048F051EBEFF011FEC4D70F3227E007F0075905590C350C007C006B6
:200082001200627590AA90C350120062D006D0070EBE00010FC3EE940AEF6480948040D64F
:0100A200223B
:06003500E478FFF6D8FD9F
:200013007900E94400601B7A009000A7780175A000E493F2A308B8000205A0D9F4DAF275EC
:02003300A0FF2C
:20003B007800E84400600A790175A000E4F309D8FC7800E84400600C7900900001E4F0A3C3
:04005B00D8FCD9FAFA
:0D0006007581071200A3E58260030200036C
:0400A3007582002240
:00000001FF
